:100000000C94AD0D41D000003FD000003DD0000069
:100010003BD0000039D0000037D0000035D00000C0
:1000200033D0000031D000002FD000002DD00000D0
:100030002BD0000029D000003BC0000025D00000DC
:1000400023D0000021D000001FD000001DD00000F0
:100050001BD0000019D0000017D0000015D0000000
:1000600013D0000011D000000FD000000DD0000010
:100070009F918F911F910F91FF91EF91A991B9914C
:10008000B0935F00B9911895BA93B0915F00BA939D
:10009000AA93BF91AF91EF93FF930F931F938F9309
:1000A0009F93552401E8A00FB1E0ED91FD910994D3
:1000B000BA93B0915F00E60CF51CE2CFB091C60098
:1000C000A091BA01A395A093BA01EBEBF1E0A09146
:1000D000B801EA0FF51DB083A395AF71A093B801E5
:1000E000C7CF0000AC2D0C09E302EE26B81D0002BC
:1000F000850248029A27C22706280A008902820E32
:1001000000000000000000000702CC10DA10EA1026
:100110009E18AC18BC18C42B8377642BF894A89550
:1001200090916000986190936000877088608093E0
:10013000600078940C946E03180E8377642DF89405
:10014000A8955092540008E100936000509260001E
:10015000789408953A0EA3637764A89508950000F3
:100160008465786974000F910F9108951628886F3F
:1001700070657261746F72009A938A9382E89EE050
:10018000089507020000400040005A00600E846994
:10019000646C6500706408958E0E846275737900D6
:1001A0007F7B0895182C846D73657400FC01899120
:1001B00099910191082B0293899199910895A60E26
:1001C000846D636C7200FC01899199910191809515
:1001D00008230293899199910895C00E866C7368E3
:1001E00069667400FC018991999131971AF0880F22
:1001F000991FFBCF0895DC0E8672736869667400E0
:10020000FC018991999131971AF096958795FBCFCA
:10021000089583D57CD281D57AC2F80E826E3D00D6
:10022000A991B991FC01FD5085918F700D90102C12
:10023000081A31F485910D90081A11F41A94D1F727
:10024000802D992708951C0F84736B697000182FF7
:1002500089919991A991B991009751F00C9110321F
:1002600011F4003210F0011719F411960197F4CF30
:10027000BA93AA930895480F847363616E00182F90
:1002800089919991A991B991009751F00C911032EF
:1002900011F4003228F0101719F011960197F4CFDD
:1002A000BA93AA930895780F846D74737400FC0157
:1002B000819109911991802399270895A80F834668
:1002C0006379A0D7803E0895BE0F84656D69740080
:1002D00069D30C948701CA0F836B65796DD30C9435
:1002E0008701D80F846B65793F0070D30C94870128
:1002F000E40F8765786563757465FC01FD5089912D
:100300009991F695E7950994F20F83406578B0D6F8
:100310000C947D010A10887661726961626C6500D7
:100320007DD092D0D4D10C94A70116108932766179
:10033000726961626C6572D065D70400C8D10C9493
:10034000A7012C1088636F6E7374616E74000E9435
:10035000D9090E94670E0C94E70944108932636F33
:100360006E7374616E74C1D10E94D9090E94670EC8
:100370000E94670E0C94E7095C1083737040FE01C5
:100380009A938A93CF0108957A1083737021EC01B8
:10039000089583727030BF91AF910E944C0A68D665
:1003A0008DBF9EBF89919991FD0109948A10B37206
:1003B00070409A938A938DB79EB70895AE10A23E6F
:1003C0003C00082F892F902F0895BE1085666C6120
:1003D00073685092E9010895CC1086656570726F5C
:1003E0006D007092E9010895DA108372616D04E086
:1003F0000093E9010895EA1082647000ABD704D03D
:100400000C94B203836373659A938A938091E90194
:1004100099270895F810846865726500EFDF0C94E1
:10042000D00E1611812CFADF88D40ED00C946703FD
:10043000241182632C00F2DF38D3B3D00C9467030D
:1004400032118463656C6C009A938A9382E090E029
:100450000895421185616C69676EE0DF08D0CEDFD8
:100460000C94960E541187616C69676E65640196F1
:100470008E7F08956611A563656C6C2B02960895B6
:100480007611A563656C6C73880F991F08958211AE
:10049000A5636861722B019608959011A563686148
:1004A000727308959C118363662CBAD6DFD668D127
:1004B00054D1A8D6F00F21D291D241F0A3D60E94F8
:1004C0000E94850F9D509695879506C0CFD658D12E
:1004D000B8D7E4D19F70906D0C94850F82213A00BB
:1004E00091D6F4FF0C94080BA6118232400098D6E6
:1004F000BFD5FBD0C3DF0C943808EA11823221004B
:10050000F4D0FDD0BBDF19D40C94960EFC118532CB
:1005100064726F70E3D00C946E030E1284326475B3
:100520007000EDD00C947F031C12853273776170DC
:10053000EED0F5D0ECD0FDD008952A1285326F763A
:1005400065729A938A938E819F819A938A938E8102
:100550009F8108953C1285737061636577D70C9411
:10056000680156128673706163657300009719F015
:10057000F5DF6FD1FBCF0C946E03641284756D6947
:100580006E00CFDFC7D106C07C1284756D61780024
:10059000C8DFB9D123D209F0A8D00C946E038A1217
:1005A00081319A938A9381E090E00895A012866148
:1005B000636365707400A3D0D5D0B1D031D68EDE20
:1005C0008D3039F08A3041F0883079F08F3769F01A
:1005D0001AC02AD06AD221C081D026D062D2FED1E0
:1005E000E1F0ABD521D061D2EACFA7D51DD05DD245
:1005F00075D097DF74D1F2D111F72BD12DD003082C
:1006000020081CD0DCCF0CD663DE79D04ED21CD1B2
:100610009AD075D064D1E2D191F20F910F9165D04B
:100620000C94C003836663729A938A9385EF9FEF5D
:100630000C942106AE1284747970650070D002C0EB
:100640006CD346DE0E94D30BD8F71F910F910C9408
:100650006E03361383287322FF91EF91EE0FFF1F75
:1006600005919A938A93CF01935F9A938A93802FEF
:100670009927E00FF91F3196F695E7950994C2D5B1
:10068000220009C35413C2732200F9DFE8D6A6D1B1
:1006900039F0B8D5581309DF9CDE07D0DEDEA7DEBF
:1006A00008958613822C2200EADFB8DE28D0CCD051
:1006B000DEDE0DD029C3A413D22E2200E6DFA2D5A0
:1006C0003C130C945502B81385616C6C6F7496DE04
:1006D0000C945404C813A464726F700089919991AA
:1006E0000895D613847377617000099119919A93D4
:1006F0008A93C8010895E413846F766572009A9313
:100700008A938A819B810895F81383726F7407D04E
:10071000ECDF0FD00C9475030A14923E7200FF9127
:10072000EF918F939F938991999109941A149272E2
:100730003E00FF91EF919A938A939F918F91099434
:100740002E1492724000EDB7FEB79A938A9393816C
:10075000848108951C1F8361627362D50C943E05E9
:100760005614812B09911991800F911F08956214DD
:10077000826D2B000E94F40B0C94160C7014812DCA
:1007800009911991081B190BC80108950090DB010C
:100790001090DC010895FADF00941094060C151CEB
:1007A0000BD001C008D0906521D03AD5812D07D05B
:1007B000806990641BC0EADF5ED75DD7802D982FDB
:1007C00092958F709F7080680895F5DF90670ED0C6
:1007D00027D5812DF4DF8069906708C0ECDF906633
:1007E00005D01ED5812DEBDF806990660C94850FB6
:1007F0007E1483616E640991199180239123089579
:10080000F214826F720009911991802B912B089537
:10081000021583786F7209911991802791270895A5
:100820001215A6696E76657274008095909508958C
:100830002215866E656761746500809590950196B6
:1008400008953215A2312B00019608954415A23166
:100850002D00019708954E15A2322B00029608959F
:100860005815853E626F64790496DAD409D0892BD5
:1008700099273BDF029604D0982B88270C94030419
:10088000F7D38F709F70929508956215A2322A0057
:10089000880F991F08958C15A2322F009595879582
:1008A00008959815822B210020DF29DFE1D35ADF3C
:1008B0001CDF0C94960EA4158677697468696E0027
:1008C0001EDF5EDF2CDF5CDF34DF0C948304B815A1
:1008D000823C3E0004D00C942706281F813D50DF47
:1008E0000C942706DC15813C4BDF8FEF9FEF14F053
:1008F000809590950895E615813EF7DE0C9474047A
:10090000F81582753C003CDF880B990B08950216A0
:1009100082753E00EADE0C9483041016822170007A
:10092000AC018991999108951C169421703E720032
:10093000FF91EF914F935F93AC0189919991099445
:100940002A1693723E70FF91EF915F914F91099437
:100950004216827040009A938A93CA010C94D00E7A
:100960005216827021009A938A93CA010C94960EB3
:100970006216837063219A938A93CA010C94040FC0
:100980007216A2702B00460D551D089582168370B5
:100990002B2B480F591F8991999108958E16852701
:1009A000656D69749A938A9388EE9FEF0C94210683
:1009B0009E1684276B6579009A938A938AEE9FEF3F
:1009C0000C942106B21685276B65793F9A938A931A
:1009D0008CEE9FEF0C942106833F303D0097899168
:1009E000999108958364303D00970895C6168375E4
:1009F0006D2A0C94023FEE1686756D2F6D6F6400A4
:100A00000C941B3FF81685752F6D6F6496D36DDEC1
:100A10000C941B3F0617812AECDF0C946E0316170B
:100A200082752F00F3DF0C942F05201786752A2F6F
:100A30006D6F640074DEDDDF7CDE0C9400052C1726
:100A4000812F6FDDE8DE6BDE88DE4FDE86DE4DDE79
:100A5000E9DF6FDE0C943E054017A36E69700991C3
:100A6000099108955A17847475636B003EDE0C94E7
:100A70007F036617873F6E6567617465D7D3AEDF06
:100A800009F0DBDE08957417836D61784ADD2CDF91
:100A900081CD8817836D696E44DD2FDF7BCD826346
:100AA00040000C94EB0E826321000C94040F941709
:100AB000827570009A938A9382E090E00895B0174F
:100AC00084686F6C640042D39ED0EEDE9CD0D0D29E
:100AD0000C94040FC017823C23009ED094D00C9439
:100AE000960ED6178564696769748A300CF087960C
:100AF000C0960895E417812397D0BAD2A2D107DE19
:100B0000F4DF0C946305F61782237300F5DF09DD2B
:100B10007ADE64DFD9F70895081882233E00FADCF4
:100B200072D0A6D279D0EBDD0C94C0031A1884736E
:100B300069676E0090301AF465D32D00C4DF0C9401
:100B40006E032E1882752E00C8DFF7D2DFDFE7DFD5
:100B500075DD0C94AE02441883752E72BEDF79DE0B
:100B6000DEDDEBD201C0C8DF1ED6E8F71F910F9182
:100B7000CDDFD5DF63DD0C94AE025818812EADDFDA
:100B80004FD3EBDDDAD2C2DFC2DDD4DFC8DF56DD02
:100B90000C94AE027C1887646563696D616CA0D2A9
:100BA00043D00C94960E9618836865782BD310006A
:100BB0003BD00C94960EA8188362696E45DC34D045
:100BC0000C94960EB8188572736176659A938A9321
:100BD0008EEF9FEF0C942106C61885756C696E6BBD
:100BE0009A938A938CEF9FEF0C942106DA18847401
:100BF00061736B009A938A9382EF9FEF0C942106A6
:100C0000EE18826870009A938A9380E090E00C94CA
:100C100021060219826862008AD181D10C94B20344
:100C200014198462617365009A938A938EEE9FEF24
:100C30000C9421062219847573657200BAD36ED3A1
:100C400092D3820D931D0895D01582303D000197F7
:100C5000880B990B0895361986736F75726365005A
:100C600080D10C9477025819872F737472696E675C
:100C70003CDD45DD85DD53DD75DD5BDD08956819FF
:100C8000C15CEEDF63D159D060640C946E038019AF
:100C9000857061727365C4D2E3DF58D1E9D1E8DFB2
:100CA0008F939F9334DDD3DA2ADD39DD30DDE7DA47
:100CB000009709F0CEDD3DDD3CDD29DD61DD46D16B
:100CC000F3DDD4DE0C94C003901984776F72640056
:100CD000E2DF0BDDBEDDCADE0C94040FCA198563AA
:100CE0006D6F766502DD24DE1ADD03C016D043DEAB
:100CF0004ADE59D5D8F71F910F9125DE0C946E036B
:100D0000DE1985706C6163650CDCCFDEC4DBEDDC65
:100D10000C947206021A8363402B01969A938A936D
:100D200001970C94EB0E161A82402B0002969A93B0
:100D30008A9302970C94D00E81210C94960E281A57
:100D4000836E3E63EADF8F700DDD0C943702401A2C
:100D500083633E6E76D364D2A4DE0E948F0E27FF9B
:100D6000C9F30895501A83286629A881B9819A93F6
:100D70008A9358DA009751F0899199910297FC0172
:100D8000FD5085919591009781F709C0A7DC67DE3A
:100D900047D2D8DFAADC09D05ADF03DC34DD08955E
:100DA000661A86696D6D65643F007BDE982E8074DF
:100DB0000895A21A8466696E640024D2E226D5DF03
:100DC000009729F48BDC1ED2080952D1CEDF08959A
:100DD000B41A8664696769743F008A331CF08136EF
:100DE0001AF08797C0970AF4A8C11AD21DDF40D124
:100DF0000C947404D21A857369676E3F80DC51DEEF
:100E0000082F6CDC0D3219F00B3219F003C004D03E
:100E10009DC102D00C949D08C4DB0C943806F61AD0
:100E20008375642A8F939F93E4DD58DC5EDC81DC5C
:100E3000E0DD6DDC0C94B203201B8675642F6D6FB2
:100E400064006DDC7AD17FDCDBDD61DC60DC71DCD1
:100E5000D7DD0C9487033A1B873E6E756D62657211
:100E600021E00097D1F05BDC8F939F931ADE8E32E6
:100E700079F0B3DFB3DD21F431DC5BDC5ADC0DC08B
:100E80004EDCD2DEF5D0CEDF54DC74DC20E001C0D5
:100E900025DC4FDC4EDCC0DFE4CF820F0895581B09
:100EA000876E756D6265723FBBD147D146D12FDC2D
:100EB00034DFA4DF34DCB8DEDBD031DC20DCF1DD74
:100EC0008397833038F4E0DA9DD1100E4BDC1FDAC3
:100ED000A3DF01C003DCC4DF2CDCA6DE2EDF7EDD59
:100EE00029F027DC17DB16DB28D110C00197D9DDEC
:100EF00016D71FDC73DD09F07FD42E3221F407DC16
:100F000082E090E003C0EADBAADD4BDB0895847346
:100F1000776170000C947503A01B837469236ADEEB
:100F2000A7D008960C94D00E1A1C8374696205D061
:100F30000C94D00E2A1C837469759A938A9380EF5F
:100F40009FEF0C942106361C833E696E9A938A9318
:100F50008AEF9FEF0C942106481C8727736F7572E8
:100F600063659A938A9386EF9FEF0C942106081B82
:100F7000190B08955A1C89696E74657270726574D4
:100F8000F0DFBEDADAD0E2DFD8DEDED55FD2A0DE77
:100F900047D187DD23DD09F467C00FDF009709F42F
:100FA0004AC052DC5CD253DE2EDC18DD99F094FE90
:100FB0000AC055D251DB0D434F4D50494C45204F8F
:100FC0004E4C591508D16F7B98D966FDDECF6F7EE8
:100FD0006F7D2FC06F7E0EE419E1C9DF11F46061EF
:100FE00024C067FF18C006EF14E1C1DF11F4EDDB88
:100FF00020C006E015E1BBDF11F4F0DB1AC004E607
:1010000014E1B5DF11F4C7DB14C000E814E1AFDF71
:1010100011F4C8DB0EC06F7D00E21FE1A8DF09F408
:10102000606295FE02C094D304C02CD16D7F94FC05
:1010300062606F77AACF6F7451DB36DF009771F073
:101040000ED2CCDC49F0082F8991999101FF02C0A2
:1010500061DF3DD63CD699CF41DBEBCF3FDB48D0BB
:101060005CDEECDA6AD0ADD06FD50C946E038140B3
:101070000C94D00E761C83736862FDD1F9DFD0D05A
:1010800010DD45DBC0DB46DF0C94040F761D89695B
:101090006D6D656469617465B5D040000C943D0860
:1010A0008E1D87696E6C696E6564ACD020000C94EF
:1010B0003D08A21D832E7374A5D03C0009D935D7F5
:1010C00007D9A0D02C0004D90E94B70FB7DA9AD064
:1010D0003E00FED80C94C60A823E72000C948F0328
:1010E0009A938A938AE090E00895B41D8364703ED9
:1010F00089D00009D9D1F4DF0C947206EC1D833E2F
:10110000647080D0000914DCCFD17CD0090007DBEB
:1011100004DE86D056D4DEDB61DC11F02CDC01C0AD
:10112000DDDA31DC40D3A0F71F910F910CDC0C9479
:101130006E03FE1D8566616C73659A938A9388279A
:1011400099270895341E8474727565009A938A9362
:101150008FEF9FEF0895461E8471756974001BD947
:101160001ED145D9C5DF7F7792D0E1DE59D0D7DED9
:101170000A9721DAF3D904DF72D130DCA1F7CFD49A
:10118000C0DF6ADA03206F6B59DA07D00C94B2081B
:10119000581E8670726F6D7074009A938A938AE0FD
:1011A00099E00C943D0F921E8561626F72746BD151
:1011B0005FDFEDD80C94AF08A81E873F61626F72A5
:1011C000743F4ADA023F15000C94EB08BA1E863FC2
:1011D00061626F7274009BDA01DC19F4BFD92EDAF8
:1011E000E6DF0C948A02CE1ED661626F7274220012
:1011F0004CDA9A938A9386ED9EE10C945502E81E90
:10120000836C6974FF91EF919A938A93EE0FFF1F9D
:1012100085919591F695E79509944214A3647570AC
:101220009A938A9308954A1982303C00990F880B4B
:10123000990B0895001F812709D14ADDBEDD0C946A
:10124000E108361F84636861720000D124DD46DA4C
:101250000C94EB0E441FC128D5DF29001CDD60640F
:101260000C948A02561F85696865726573D000CF39
:10127000661FD65B636861725D00E7DF0C94670EE2
:101280008363662C0C945502721F82637200BADF6E
:101290000D0002D0B7DF0A000C9468018A1F866334
:1012A00072656174650077FD3AD477FD2ADFCED090
:1012B0000FDDB6DF82DDD3DBCADCCED90F414C5265
:1012C0004541445920444546494E454484DFA8DF02
:1012D000E8DB67D997DF1000F3DA73DF7068C6DFE9
:1012E000C6D838D02ADDC7D0C3DE80DA16DDBEDF2F
:1012F00097DFC1D022DD03DA806801DAD6DBCBD8F4
:10130000F4D9F0DCB3DFCDDB8F779EDAB0D880D1B3
:1013100085D80091E901003009F40C96D8D47DD02D
:101320000CDF0C94850F9E1FD8706F7374706F6EF6
:1013300065008CD0CDDC41DD73DF43DF77DF4EDB32
:1013400029F0C5D49A938A938AEA91E10C945502C4
:10135000836964709A938A938FED91E0089587284A
:10136000646F65733E29F6DF83DEE3D984D080DEC7
:10137000E9DC0896EFDFE1DC45DF0C94C6D5C5D586
:10138000E9DF0C94960E2820D5646F65733E9A931E
:101390008A9386E690E20C9455028820C15B5092B5
:1013A000EA0108959C20815D6092EA010895A620DB
:1013B000813A79DFF9DF0C947002B020873A6E6FC2
:1013C0006E616D6553DF0C94D409BC20D13BE7DF1F
:1013D00061FD23C04BDF28D08C01107F105D59F0D8
:1013E0008991999121D08E509449B1F48CE094E97F
:1013F0007CD90C94960E33DB9F7093FD906F48DA86
:1014000035DFB0D9FFDEFEFF03D1FCDE0C9407D040
:101410009D509695879503C07DD8F4DE08950C9471
:10142000850FCC20822D40000CD0FADE0C94D00E1B
:101430002421D35B275D00DF0C94670E3221A2329A
:101440002D00029708953E2182626C009A938A9340
:1014500080E290E0089548218573746174659A93E1
:101460008A938091EA019091EA0108955821866C4F
:101470006174657374009A938A9385EE91E0089580
:101480006E21827330009A938A9384EE9FEF0C94BE
:1014900021068221827230009A938A9386EE9FEF12
:1014A0000C94210683696E699A938A938DED91E07D
:1014B00008959421857469636B739A938A93C70125
:1014C0000895B421826D7300F8DF4CD9FED48C01ED
:1014D000F8940E191F097894CAF70C946E03C4216E
:1014E000832E69641ADC8F701AD903C016DC0AD007
:1014F000D3DE59D1D8F71F910F910C946E03E021E0
:10150000833E70729927803012F080320AF48EE2A6
:10151000089503DC8F70E9D803DAE7D8FEDBF7D84B
:10152000EED82ED991D909DEB1DAF9D809C00E94D6
:10153000910240D228DAD9D809D511F0989403C085
:1015400032D1A8F718941F910F910CC00E949102FC
:10155000E0DF21F065DEC6DF0E94AE0272DF88DDCB
:101560000097A1F70C948A02002285776F7264734A
:101570006DDFAEDB55DE46DEE22602D07CDF78DDB5
:1015800086DE0C94A60A6A22822E73000E94AE02A6
:1015900047DE0E94BF0177DF6BDD53DF0E949102BF
:1015A000A3D91CDA19F040DFCFDAF8CF97D80C9422
:1015B0008A0288228464756D70000F9623DE100005
:1015C00031DAADD81EC063DE2BDE1CDE0400C6DAC5
:1015D00019DE3A0061DE16DE0F00A1D89EDB12DEB6
:1015E0000200BCDAE0D0D0F71F910F9140970ADEDD
:1015F0000F0095D892DB86DF4FDED5D0D8F71F914C
:101600000F91D1D000F71F910F910C946E038120A0
:10161000A1DE0C945404B42283783E72FC018991BB
:10162000999109D03196829392935292CF01089565
:101630001823833E78619D509695879508953223AF
:101640008378613E880F991F935F089540238370CC
:10165000666C9A938A9380E09DE00895842C3F30D5
:101660003D0065FD03C0CEDDDC1603C004D0CADD3D
:10167000E8166F7D6DC0C6DDFCFFCACF0FD99F7025
:10168000906CCDCEBFDD08F0CACEBCDD09F464FDA0
:101690009B7FC5CE4E23D269660064FDECDFE1DF9F
:1016A000F4DF6F7EE3DD49DD0C943E0B9623D465B9
:1016B0006C736500DBDD41DDE1DF2CDC0C94640B39
:1016C000AE23D47468656E006260D0DD18D858D837
:1016D000B8DEE4D897DD00C096D81CDC0C94960EDA
:1016E000C223D5626567696E0C943609E223D5750D
:1016F0006E74696C626064FDBEDFB3DFC6DF6F7E4F
:101700000C94860BEE23D5616761696E6260AEDD75
:1017100037D897DE0C943E0B0624D57768696C6544
:10172000BCDF0C9475031A24D67265706561740071
:10173000EDDF0C94640B2824D6696E6C696E65002D
:101740006F7E6F7D79DD0C94A80B382483696E2C35
:10175000EDDA66DD57DD0895BDD840D911F0D5D357
:10176000F7CF0C948A024C24D3666F724BDD1E14A3
:101770000E9455027BDDE1DC81DF78DD0C9475038E
:101780006824D46E657874009FDF3CDDA6240E9437
:10179000550278DFBBDF36DDB8240C94A80B872810
:1017A0006E6578742920FF91EF91BF91AF911197E9
:1017B000AF93BF93099408951F910F9108958224C8
:1017C00095656E646974FF91EF911F910F915F921F
:1017D0005F920994C024B57264726F700F910F917B
:1017E0000895D62483733E6497FFA7CCAFCCE4243E
:1017F00087646E656761746549D00E94D1020C945C
:10180000BA03F024883F646E6567617465000EDD7D
:10181000E5D809F0F1DF089504258464616273005E
:10182000FFDC0C94070C1A2582642B00A991B99156
:10183000E991F99109911991A00FB11F8E1F9F1F76
:10184000BA93AA930895282582642D00D5DF0C94BD
:10185000160C48258364322F099119919595879527
:10186000179507951A930A93089554258364322A8D
:1018700009911991000F111F881F991F1A930A933C
:1018800008956C258764696E766572740991199163
:1018900000951095809590951A930A930895842544
:1018A0008364303DA991B991892B8A2B8B2B51F4FC
:1018B0008FEF9FEF0895A0258364303CA991B991E3
:1018C0009030B2F3882799270895B82582643D00A7
:1018D000BDDF0C94520CCC2582643C00B7DF8991AB
:1018E00099918FEF9FEF14F0809590950895D825EA
:1018F00082643E000E9498020C946E0CF025837561
:10190000642EEBD803D90BD90E941E030C94AE02AF
:10191000FE2582642E00E1D88F939F9381DFF6D855
:101920000E94990307D9FBD80E941E030C94AE02B3
:10193000122686756E757365640009D00E940E02CA
:101940000E94C0030C9424043226826869005ADC89
:101950005E260E9404020E94B2030C94D00EFF8AFD
:10196000FF0CFF084A268278400089919991FC017A
:10197000859195910895662682782100082F899196
:1019800099910E94423F0C94810E782685706F7267
:1019900074629A938A9385E290E008958C26846419
:1019A000647262009A938A9384E290E008959E267E
:1019B000A24070009A938A93CA010895B02683705A
:1019C00063409A938A93CA010C94EB0EBE268370EF
:1019D00061649A938A938091E3019091E401089560
:1019E000CE26A370322B470D551D08950000866D3D
:1019F00061726B6572000E94E90155DC03DC00092D
:101A00000E940E026DDB6ED96BDB0E9467030E94A1
:101A1000F701A9DC49DD64DB0C9472069A0E856C33
:101A20006F61642B706108951E27856C6F61642D52
:101A30007F7E2D98089500FE03C0E4DB50002CDC6F
:101A400001FE03C0DFDB450027DC02FE03C0DADB5A
:101A5000420022DC03FE03C0D5DB57001DDC16FE6E
:101A600003C0D0DB4D0018DC0C94AE0274FF01C043
:101A70002D9876FF0CC007E0201649F4E091BA01DA
:101A8000E03029F46092530088955092530074FD21
:101A90002D9A08952A278374783017D20091C000B8
:101AA00005FFFBCF8093C600899199910895E0913D
:101AB000C000E5FFFCCFF093C6000895962783721F
:101AC000783003D220D00E94EE04D9F39A938A93FF
:101AD000EBEBF1E0A091B901EA0FF51D80819927A8
:101AE00000915F00F894A395AF71A093B901A09104
:101AF000BA01AA95A093BA0100935F000895BE278A
:101B0000847278303F00A091BA01A5110C94A60808
:101B10000C949D08560E8669666C7573680060FDAE
:101B20000C94693F0895002885656D7074796ADBAF
:101B3000E20D68DB000966DB0C00D4D8FEDA62DB5C
:101B4000020962D10C9478085524E1E0F2E03F01EB
:101B500008952828847761726D00F894AA27BB271E
:101B6000C9E1D0E0DD93C150E9F710905F0000902B
:101B7000540050925400B1E0A0E05D92B830E9F713
:101B8000AF3FD9F75C92BA94C5E8D2E008E412E01E
:101B90000DBF1EBFD9DF0E949F0007E012E01801B1
:101BA00031DBEE0D2FDBE9012DDB1C000E947206FC
:101BB00029DB0009F5D0CADA0E946F040E94EE0406
:101BC00009F0B5DF7092440003E00093450009EF8F
:101BD0000093470070926E0015DBBC0D13DB130001
:101BE00067D003E30093C40002E00093C00008E95B
:101BF0000093C10006E00093C2007ADA5092BA0165
:101C00005092B801789417DF24D0259A54D10E94BD
:101C1000EE04D1F00E942C03034553430E941E039F
:101C2000F1DAD00751DC0E9475010E94EE0449F000
:101C30000E946E01E7DA1B000E946F040E94EE040E
:101C400019F439D10E947D010C94D7085428837669
:101C500065720E942C0323466C617368466F727430
:101C60006820352041546D65676133323820323841
:101C70002E31312E323032340D0A0C941E034E298F
:101C8000A2656900789408958029A2646900F89497
:101C900008958A29C23B6900B5DA0C9436D1B2DACC
:101CA000380033D10C94CF09942984696E742100D3
:101CB000FC01EE0F80E8E80FF1E089919991BBDC1F
:101CC0000C949B0EAA29C76C69746572616C9ADAD0
:101CD000201F3EDD8093DB019093DC016068A0DA79
:101CE000982F92959F708F70906E80680ED1892F7B
:101CF00092959F708F70906E80690C94850F0E94F2
:101D00003F3F89919991A091E701A0FD3DC1AF7737
:101D1000B1E08D939D9373C0C629823E6100282F48
:101D2000392F8991999108951A2A8121993040F487
:101D3000FC0189919991918380838991999108956A
:101D400009D09D30E0F60E9491026AD00196098187
:101D5000088366C062FF089519DC0E942C030341CA
:101D6000443F0E941E0370CFFC01FD5060FF0BC07A
:101D7000FB1109C00E2F00780A1529F4EF77F1E066
:101D80008191919108958591959108952A2A826172
:101D90003E009A938A93822F932F08958E2A814032
:101DA000993020F4FC018191919108959D30E0F6E5
:101DB000F999FECF995081BD92BDF89A00B58395EF
:101DC00081BDF89A90B5802F0895CEDF99270895A8
:101DD0009E2A82634000993020F4FC01819199276A
:101DE00008959D3090F7E4DF992708950E943F3FC2
:101DF00089919991A091E701AF77B1E08D936160EE
:101E000009C0D22A82632100993038F4FC018991FB
:101E1000999180838991999108959CDF9D3030F745
:101E2000F894F999FDCF995081BD92BD899199910E
:101E300080BDFA9AF99AF999FECF7894EBCF042BEA
:101E400083666C2D64600895402B83666C2B6B7FDA
:101E500008954A2B8576616C756525DA0E94130218
:101E600082DA0C94D00E542B8564656665721BDA99
:101E7000C9D9AE1E0E94130276DA0C948701682B32
:101E8000C2697300D9D90E943404E9DA0E94EE04D1
:101E900031F01DDFB7D92C2A0E94550201C046DF60
:101EA0000895802BC2746F000C94420FA42B87748A
:101EB00075726E6B65799A938A938DED91E00C94AF
:101EC000310FAE2B857061757365D0DDA895DF93FA
:101ED000CF939F938F935F934F93F101F8940EB735
:101EE00002930DB70293B291A2911D010E910EBF04
:101EF0000E910DBF4F915F918F919F91CF91DF9187
:101F0000789408956E0E82692C00B0D90FDF0E947C
:101F100024020C94080B062C8369632CA7D974DF68
:101F20000E94D1020C94080B81200E94140638DF15
:101F3000803111F484E209C08A3011F483E205C0D3
:101F4000823011F485E201C08FE308950E948F036F
:101F500009C00E9409010E94C0030E94EE0411F012
:101F60000C94A20A20DCA8F70C949E0A81200E94FF
:101F7000040248D90A0E0E94B20312DF0E948D06A5
:101F800041D90F000C94FB039A938A938091E70147
:101F90009091E801FBDA0E942C030441443F1500B4
:101FA0000E941E030C94D70808950895010002E5CD
:101FB0008000FFFFFFFFFFFFFFFFFFFFFFFFFFFFAF
:101FC000FFFFFFFFFFFFFFFFFFFFFFFFFFFFFFFF21
:101FD000FFFFFFFFFFFFFFFFFFFFFFFFFFFFFFFF11
:101FE000FFFFFFFFFFFFFFFFFFFFFFFFFFFFFFFF01
:101FF000FFFFFFFFFFFFFFFFFFFFFFFFFFFFFFFFF1
:107E00000C94AD0D0F921F9209911991809FD00192
:107E1000EE27FF27909FB00DE11DF51D819FB00D4E
:107E2000E11DF51D919FE00DF11DBA93AA93CF01BD
:107E30001F900F900895E894882329F4992319F44A
:107E400068940C94AD0D1F92DC011990E991899111
:107E5000999100E1FF27880F991F111CEE1FFF1F4A
:107E60001A16EB07F50518F083951A1AEB0B0A950D
:107E700089F7EA931A921F9008950C94CA0F9D50A7
:107E8000052D00C08093E7019093E801003011F4C4
:107E90009E3798F7003011F4903278F30091E701A3
:107EA00000780A1105C00091E8010B1101C0089586
:107EB0000E948F0D0091E7010078A02EB090E8019C
:107EC00000E8F501A0E0B1E015911D930A95E1F7F6
:107ED00008950E94D40FF8940027F501003011F4A2
:107EE000FE3738F5003011F4F03218F113E030D0DD
:107EF00011E12ED000E4A0E0B1E00F921F920D90AE
:107F00001D9011E00E94A83F32960150C1F7E05841
:107F1000F04015E00E94A83F13D000E8A058B04000
:107F200005901D9001100C94AD0D0150C9F71F90E4
:107F30000F900FEFB02E6E7F78940E94D50F0895AA
:107F40008090570086FE089511E10E94A83FF8CF67
:107F50008090570080FCFCCF10935700E8958090EC
:107F6000570080FCFCCF0895FFFFFFFFFFFFFFFFDE
:107F7000FFFFFFFFFFFFFFFFFFFFFFFFFFFFFFFF11
:107F8000FFFFFFFFFFFFFFFFFFFFFFFFFFFFFFFF01
:107F9000FFFFFFFFFFFFFFFFFFFFFFFFFFFFFFFFF1
:107FA000FFFFFFFFFFFFFFFFFFFFFFFFFFFFFFFFE1
:107FB000FFFFFFFFFFFFFFFFFFFFFFFFFFFFFFFFD1
:107FC000FFFFFFFFFFFFFFFFFFFFFFFFFFFFFFFFC1
:107FD000FFFFFFFFFFFFFFFFFFFFFFFFFFFFFFFFB1
:107FE000FFFFFFFFFFFFFFFFFFFFFFFFFFFFFFFFA1
:107FF000FFFFFFFFFFFFFFFFFFFFFFFFFFFFFFFF91
:00000001FF
